{
  "contractName": "voting",
  "abi": [
    {
      "inputs": [],
      "payable": false,
      "stateMutability": "nonpayable",
      "type": "constructor"
    },
    {
      "constant": true,
      "inputs": [],
      "name": "chairperson",
      "outputs": [
        {
          "internalType": "address",
          "name": "",
          "type": "address"
        }
      ],
      "payable": false,
      "stateMutability": "view",
      "type": "function"
    },
    {
      "constant": true,
      "inputs": [
        {
          "internalType": "uint256",
          "name": "",
          "type": "uint256"
        }
      ],
      "name": "proposals",
      "outputs": [
        {
          "internalType": "string",
          "name": "name",
          "type": "string"
        },
        {
          "internalType": "uint256",
          "name": "VoteCount",
          "type": "uint256"
        }
      ],
      "payable": false,
      "stateMutability": "view",
      "type": "function"
    },
    {
      "constant": true,
      "inputs": [
        {
          "internalType": "address",
          "name": "",
          "type": "address"
        }
      ],
      "name": "voters",
      "outputs": [
        {
          "internalType": "uint256",
          "name": "vote",
          "type": "uint256"
        },
        {
          "internalType": "bool",
          "name": "voted",
          "type": "bool"
        },
        {
          "internalType": "uint256",
          "name": "weight",
          "type": "uint256"
        }
      ],
      "payable": false,
      "stateMutability": "view",
      "type": "function"
    },
    {
      "constant": false,
      "inputs": [
        {
          "internalType": "string",
          "name": "name",
          "type": "string"
        }
      ],
      "name": "insertProposal",
      "outputs": [],
      "payable": false,
      "stateMutability": "nonpayable",
      "type": "function"
    },
    {
      "constant": false,
      "inputs": [
        {
          "internalType": "address",
          "name": "voter",
          "type": "address"
        }
      ],
      "name": "giveRightToVote",
      "outputs": [],
      "payable": false,
      "stateMutability": "nonpayable",
      "type": "function"
    },
    {
      "constant": false,
      "inputs": [
        {
          "internalType": "uint256",
          "name": "proposal",
          "type": "uint256"
        }
      ],
      "name": "vote",
      "outputs": [],
      "payable": false,
      "stateMutability": "nonpayable",
      "type": "function"
    },
    {
      "constant": true,
      "inputs": [],
      "name": "winningProposal",
      "outputs": [
        {
          "internalType": "uint256",
          "name": "winningProposal",
          "type": "uint256"
        }
      ],
      "payable": false,
      "stateMutability": "view",
      "type": "function"
    },
    {
      "constant": true,
      "inputs": [],
      "name": "winningName",
      "outputs": [
        {
          "internalType": "string",
          "name": "winningName",
          "type": "string"
        }
      ],
      "payable": false,
      "stateMutability": "view",
      "type": "function"
    }
  ],
  "bytecode": "0x608060405234801561001057600080fd5b5033600260006101000a81548173ffffffffffffffffffffffffffffffffffffffff021916908373ffffffffffffffffffffffffffffffffffffffff1602179055506001806000600260009054906101000a900473ffffffffffffffffffffffffffffffffffffffff1673ffffffffffffffffffffffffffffffffffffffff1673ffffffffffffffffffffffffffffffffffffffff16815260200190815260200160002060020181905550610dbd806100ca6000396000f3fe608060405234801561001057600080fd5b50600436106100885760003560e01c8063609ff1bd1161005b578063609ff1bd146101165780639e7b8d6114610134578063a3ec138d14610150578063de34a5501461018257610088565b80630121b93f1461008d578063013cf08b146100a95780631f9ff6d7146100da5780632e4176cf146100f8575b600080fd5b6100a760048036036100a29190810190610904565b61019e565b005b6100c360048036036100be9190810190610904565b6102ec565b6040516100d1929190610b2f565b60405180910390f35b6100e26103b5565b6040516100ef9190610b0d565b60405180910390f35b61010061047a565b60405161010d9190610af2565b60405180910390f35b61011e6104a0565b60405161012b9190610bdf565b60405180910390f35b61014e6004803603610149919081019061089a565b610517565b005b61016a6004803603610165919081019061089a565b6106d0565b60405161017993929190610bfa565b60405180910390f35b61019c600480360361019791908101906108c3565b610707565b005b6000600160003373ffffffffffffffffffffffffffffffffffffffff1673ffffffffffffffffffffffffffffffffffffffff1681526020019081526020016000209050600081600201541415610229576040517f08c379a000000000000000000000000000000000000000000000000000000000815260040161022090610b5f565b60405180910390fd5b8060010160009054906101000a900460ff161561027b576040517f08c379a000000000000000000000000000000000000000000000000000000000815260040161027290610b7f565b60405180910390fd5b60018160010160006101000a81548160ff0219169083151502179055508181600001819055508060020154600083815481106102b357fe5b90600052602060002090600202016001015401600083815481106102d357fe5b9060005260206000209060020201600101819055505050565b600081815481106102f957fe5b9060005260206000209060020201600091509050806000018054600181600116156101000203166002900480601f0160208091040260200160405190810160405280929190818152602001828054600181600116156101000203166002900480156103a55780601f1061037a576101008083540402835291602001916103a5565b820191906000526020600020905b81548152906001019060200180831161038857829003601f168201915b5050505050908060010154905082565b606060006103c16104a0565b815481106103cb57fe5b90600052602060002090600202016000018054600181600116156101000203166002900480601f0160208091040260200160405190810160405280929190818152602001828054600181600116156101000203166002900480156104705780601f1061044557610100808354040283529160200191610470565b820191906000526020600020905b81548152906001019060200180831161045357829003601f168201915b5050505050905090565b600260009054906101000a900473ffffffffffffffffffffffffffffffffffffffff1681565b6000806000905060008090505b6000805490508110156105125781600082815481106104c857fe5b906000526020600020906002020160010154111561050557600081815481106104ed57fe5b90600052602060002090600202016001015491508092505b80806001019150506104ad565b505090565b600260009054906101000a900473ffffffffffffffffffffffffffffffffffffffff1673ffffffffffffffffffffffffffffffffffffffff163373ffffffffffffffffffffffffffffffffffffffff16146105a7576040517f08c379a000000000000000000000000000000000000000000000000000000000815260040161059e90610b9f565b60405180910390fd5b600160008273ffffffffffffffffffffffffffffffffffffffff1673ffffffffffffffffffffffffffffffffffffffff16815260200190815260200160002060010160009054906101000a900460ff1615610637576040517f08c379a000000000000000000000000000000000000000000000000000000000815260040161062e90610bbf565b60405180910390fd5b6000600160008373ffffffffffffffffffffffffffffffffffffffff1673ffffffffffffffffffffffffffffffffffffffff168152602001908152602001600020600201541461068657600080fd5b60018060008373ffffffffffffffffffffffffffffffffffffffff1673ffffffffffffffffffffffffffffffffffffffff1681526020019081526020016000206002018190555050565b60016020528060005260406000206000915090508060000154908060010160009054906101000a900460ff16908060020154905083565b600060405180604001604052808381526020016000815250908060018154018082558091505090600182039060005260206000209060020201600090919290919091506000820151816000019080519060200190610766929190610777565b506020820151816001015550505050565b828054600181600116156101000203166002900490600052602060002090601f016020900481019282601f106107b857805160ff19168380011785556107e6565b828001600101855582156107e6579182015b828111156107e55782518255916020019190600101906107ca565b5b5090506107f391906107f7565b5090565b61081991905b808211156108155760008160009055506001016107fd565b5090565b90565b60008135905061082b81610d4c565b92915050565b600082601f83011261084257600080fd5b813561085561085082610c5e565b610c31565b9150808252602083016020830185838301111561087157600080fd5b61087c838284610cf9565b50505092915050565b60008135905061089481610d63565b92915050565b6000602082840312156108ac57600080fd5b60006108ba8482850161081c565b91505092915050565b6000602082840312156108d557600080fd5b600082013567ffffffffffffffff8111156108ef57600080fd5b6108fb84828501610831565b91505092915050565b60006020828403121561091657600080fd5b600061092484828501610885565b91505092915050565b61093681610cb1565b82525050565b61094581610cc3565b82525050565b600061095682610c95565b6109608185610ca0565b9350610970818560208601610d08565b61097981610d3b565b840191505092915050565b600061098f82610c8a565b6109998185610ca0565b93506109a9818560208601610d08565b6109b281610d3b565b840191505092915050565b60006109ca601483610ca0565b91507f486173206e6f20726967687420746f20766f74650000000000000000000000006000830152602082019050919050565b6000610a0a600d83610ca0565b91507f416c726561647920766f746564000000000000000000000000000000000000006000830152602082019050919050565b6000610a4a602c83610ca0565b91507f4f6e6c7920746865206368616972706572736f6e2063616e206769766520616360008301527f6365737320746f20766f746500000000000000000000000000000000000000006020830152604082019050919050565b6000610ab0601b83610ca0565b91507f54686520766f7465722068617320616c726561647920766f74656400000000006000830152602082019050919050565b610aec81610cef565b82525050565b6000602082019050610b07600083018461092d565b92915050565b60006020820190508181036000830152610b27818461094b565b905092915050565b60006040820190508181036000830152610b498185610984565b9050610b586020830184610ae3565b9392505050565b60006020820190508181036000830152610b78816109bd565b9050919050565b60006020820190508181036000830152610b98816109fd565b9050919050565b60006020820190508181036000830152610bb881610a3d565b9050919050565b60006020820190508181036000830152610bd881610aa3565b9050919050565b6000602082019050610bf46000830184610ae3565b92915050565b6000606082019050610c0f6000830186610ae3565b610c1c602083018561093c565b610c296040830184610ae3565b949350505050565b6000604051905081810181811067ffffffffffffffff82111715610c5457600080fd5b8060405250919050565b600067ffffffffffffffff821115610c7557600080fd5b601f19601f8301169050602081019050919050565b600081519050919050565b600081519050919050565b600082825260208201905092915050565b6000610cbc82610ccf565b9050919050565b60008115159050919050565b600073ffffffffffffffffffffffffffffffffffffffff82169050919050565b6000819050919050565b82818337600083830152505050565b60005b83811015610d26578082015181840152602081019050610d0b565b83811115610d35576000848401525b50505050565b6000601f19601f8301169050919050565b610d5581610cb1565b8114610d6057600080fd5b50565b610d6c81610cef565b8114610d7757600080fd5b5056fea365627a7a723158208e49c69755e3ecf2a623997d0d315152d5eb5566fe76b10df4420b7c1908906a6c6578706572696d656e74616cf564736f6c63430005110040",
  "source": "pragma solidity >=0.4.22 <0.9.0;\r\npragma experimental ABIEncoderV2;\r\n\r\ncontract voting {\r\n    struct Proposal {\r\n        string name;\r\n        uint256 VoteCount;\r\n    }\r\n\r\n    struct Voter {\r\n        uint256 vote;\r\n        bool voted;\r\n        uint256 weight;\r\n    }\r\n\r\n    Proposal[] public proposals;\r\n\r\n    mapping(address => Voter) public voters;\r\n\r\n    address public chairperson;\r\n\r\n    constructor() public {\r\n        chairperson = msg.sender;\r\n        voters[chairperson].weight = 1;\r\n        // for (uint256 i = 0; i < proposalNames.length; i++) {\r\n        //     proposals.push(Proposal({name: proposalNames[i], VoteCount: 0}));\r\n        // }\r\n    }\r\n\r\n    function insertProposal(string memory name) public {\r\n        proposals.push(Proposal({name: name, VoteCount: 0}));\r\n    }\r\n\r\n    //function createProposal(string memory name, uint256 number) public {}\r\n    function giveRightToVote(address voter) public {\r\n        require(\r\n            msg.sender == chairperson,\r\n            \"Only the chairperson can give access to vote\"\r\n        );\r\n        require(!voters[voter].voted, \"The voter has already voted\");\r\n        require(voters[voter].weight == 0);\r\n        voters[voter].weight = 1;\r\n    }\r\n\r\n    function vote(uint256 proposal) public {\r\n        Voter storage sender = voters[msg.sender];\r\n        require(sender.weight != 0, \"Has no right to vote\");\r\n        require(!sender.voted, \"Already voted\");\r\n        sender.voted = true;\r\n        sender.vote = proposal;\r\n        proposals[proposal].VoteCount =\r\n            proposals[proposal].VoteCount +\r\n            sender.weight;\r\n    }\r\n\r\n    function winningProposal() public view returns (uint256 winningProposal) {\r\n        uint256 winningVoteCount = 0;\r\n        for (uint256 i = 0; i < proposals.length; i++) {\r\n            if (proposals[i].VoteCount > winningVoteCount) {\r\n                winningVoteCount = proposals[i].VoteCount;\r\n                winningProposal = i;\r\n            }\r\n        }\r\n    }\r\n\r\n    function winningName() public view returns (string memory winningName) {\r\n        winningName = proposals[winningProposal()].name;\r\n    }\r\n}\r\n",
  "sourcePath": "C:\\Users\\shrav\\Desktop\\FinalYear\\Blockchain\\voting\\contracts\\voting.sol",
  "compiler": {
    "name": "solc",
    "version": "0.5.17+commit.d19bba13.Emscripten.clang"
  },
  "schemaVersion": "3.4.3",
  "updatedAt": "2021-12-11T16:17:45.263Z",
  "networkType": "ethereum",
  "devdoc": {
    "methods": {}
  },
  "userdoc": {
    "methods": {}
  }
}